{
	"data": {
		"bytecode": {
			"linkReferences": {},
			"object": "60806040526010600055600054600a6200001a91906200008c565b6001553480156200002a57600080fd5b506200020f565b6000808291508390505b600185111562000083578086048111156200005b576200005a620001d3565b5b60018516156200006b5780820291505b80810290506200007b8562000202565b94506200003b565b94509492505050565b60006200009982620001c9565b9150620000a683620001c9565b9250620000d57fffffffffffffffffffffffffffffffffffffffffffffffffffffffffffffffff8484620000dd565b905092915050565b600082620000ef5760019050620001c2565b81620000ff5760009050620001c2565b8160018114620001185760028114620001235762000159565b6001915050620001c2565b60ff841115620001385762000137620001d3565b5b8360020a915084821115620001525762000151620001d3565b5b50620001c2565b5060208310610133831016604e8410600b8410161715620001935782820a9050838111156200018d576200018c620001d3565b5b620001c2565b620001a2848484600162000031565b92509050818404811115620001bc57620001bb620001d3565b5b81810290505b9392505050565b6000819050919050565b7f4e487b7100000000000000000000000000000000000000000000000000000000600052601160045260246000fd5b60008160011c9050919050565b6107d4806200021f6000396000f3fe608060405234801561001057600080fd5b50600436106100415760003560e01c8063037a417c146100465780632052465e146100645780637bff0a0114610095575b600080fd5b61004e6100b1565b60405161005b9190610490565b60405180910390f35b61007e6004803603810190610079919061041b565b6100ee565b60405161008c9291906104b2565b60405180910390f35b6100af60048036038101906100aa91906103d2565b6101aa565b005b60606040518060400160405280600c81526020017f7465737420737563636573730000000000000000000000000000000000000000815250905090565b600281815481106100fe57600080fd5b906000526020600020906002020160009150905080600001805461012190610612565b80601f016020809104026020016040519081016040528092919081815260200182805461014d90610612565b801561019a5780601f1061016f5761010080835404028352916020019161019a565b820191906000526020600020905b81548152906001019060200180831161017d57829003601f168201915b5050505050908060010154905082565b60006101b5826101c5565b90506101c182826101eb565b5050565b600080828051906020012060001c9050600154816101e39190610675565b915050919050565b6002604051806040016040528084815260200183815250908060018154018082558091505060019003906000526020600020906002020160009091909190915060008201518160000190805190602001906102479291906102aa565b50602082015181600101555050600060016002805490506102689190610592565b90507f88f026aacbbecc90c18411df4b1185fd8d9be2470f1962f192bf84a27d0704b781848460405161029d939291906104e2565b60405180910390a1505050565b8280546102b690610612565b90600052602060002090601f0160209004810192826102d8576000855561031f565b82601f106102f157805160ff191683800117855561031f565b8280016001018555821561031f579182015b8281111561031e578251825591602001919060010190610303565b5b50905061032c9190610330565b5090565b5b80821115610349576000816000905550600101610331565b5090565b600061036061035b84610545565b610520565b90508281526020810184848401111561037c5761037b610767565b5b6103878482856105d0565b509392505050565b600082601f8301126103a4576103a3610762565b5b81356103b484826020860161034d565b91505092915050565b6000813590506103cc81610787565b92915050565b6000602082840312156103e8576103e7610771565b5b600082013567ffffffffffffffff8111156104065761040561076c565b5b6104128482850161038f565b91505092915050565b60006020828403121561043157610430610771565b5b600061043f848285016103bd565b91505092915050565b600061045382610576565b61045d8185610581565b935061046d8185602086016105df565b61047681610776565b840191505092915050565b61048a816105c6565b82525050565b600060208201905081810360008301526104aa8184610448565b905092915050565b600060408201905081810360008301526104cc8185610448565b90506104db6020830184610481565b9392505050565b60006060820190506104f76000830186610481565b81810360208301526105098185610448565b90506105186040830184610481565b949350505050565b600061052a61053b565b90506105368282610644565b919050565b6000604051905090565b600067ffffffffffffffff8211156105605761055f610733565b5b61056982610776565b9050602081019050919050565b600081519050919050565b600082825260208201905092915050565b600061059d826105c6565b91506105a8836105c6565b9250828210156105bb576105ba6106a6565b5b828203905092915050565b6000819050919050565b82818337600083830152505050565b60005b838110156105fd5780820151818401526020810190506105e2565b8381111561060c576000848401525b50505050565b6000600282049050600182168061062a57607f821691505b6020821081141561063e5761063d610704565b5b50919050565b61064d82610776565b810181811067ffffffffffffffff8211171561066c5761066b610733565b5b80604052505050565b6000610680826105c6565b915061068b836105c6565b92508261069b5761069a6106d5565b5b828206905092915050565b7f4e487b7100000000000000000000000000000000000000000000000000000000600052601160045260246000fd5b7f4e487b7100000000000000000000000000000000000000000000000000000000600052601260045260246000fd5b7f4e487b7100000000000000000000000000000000000000000000000000000000600052602260045260246000fd5b7f4e487b7100000000000000000000000000000000000000000000000000000000600052604160045260246000fd5b600080fd5b600080fd5b600080fd5b600080fd5b6000601f19601f8301169050919050565b610790816105c6565b811461079b57600080fd5b5056fea26469706673582212202ae22a497c112b50bb0a9b82b65c066600ad77d8785fe19eff9b3716b5fac3c964736f6c63430008060033",
			"opcodes": "PUSH1 0x80 PUSH1 0x40 MSTORE PUSH1 0x10 PUSH1 0x0 SSTORE PUSH1 0x0 SLOAD PUSH1 0xA PUSH3 0x1A SWAP2 SWAP1 PUSH3 0x8C JUMP JUMPDEST PUSH1 0x1 SSTORE CALLVALUE DUP1 ISZERO PUSH3 0x2A JUMPI PUSH1 0x0 DUP1 REVERT JUMPDEST POP PUSH3 0x20F JUMP JUMPDEST PUSH1 0x0 DUP1 DUP3 SWAP2 POP DUP4 SWAP1 POP JUMPDEST PUSH1 0x1 DUP6 GT ISZERO PUSH3 0x83 JUMPI DUP1 DUP7 DIV DUP2 GT ISZERO PUSH3 0x5B JUMPI PUSH3 0x5A PUSH3 0x1D3 JUMP JUMPDEST JUMPDEST PUSH1 0x1 DUP6 AND ISZERO PUSH3 0x6B JUMPI DUP1 DUP3 MUL SWAP2 POP JUMPDEST DUP1 DUP2 MUL SWAP1 POP PUSH3 0x7B DUP6 PUSH3 0x202 JUMP JUMPDEST SWAP5 POP PUSH3 0x3B JUMP JUMPDEST SWAP5 POP SWAP5 SWAP3 POP POP POP JUMP JUMPDEST PUSH1 0x0 PUSH3 0x99 DUP3 PUSH3 0x1C9 JUMP JUMPDEST SWAP2 POP PUSH3 0xA6 DUP4 PUSH3 0x1C9 JUMP JUMPDEST SWAP3 POP PUSH3 0xD5 PUSH32 0xFFFFFFFFFFFFFFFFFFFFFFFFFFFFFFFFFFFFFFFFFFFFFFFFFFFFFFFFFFFFFFFF DUP5 DUP5 PUSH3 0xDD JUMP JUMPDEST SWAP1 POP SWAP3 SWAP2 POP POP JUMP JUMPDEST PUSH1 0x0 DUP3 PUSH3 0xEF JUMPI PUSH1 0x1 SWAP1 POP PUSH3 0x1C2 JUMP JUMPDEST DUP2 PUSH3 0xFF JUMPI PUSH1 0x0 SWAP1 POP PUSH3 0x1C2 JUMP JUMPDEST DUP2 PUSH1 0x1 DUP2 EQ PUSH3 0x118 JUMPI PUSH1 0x2 DUP2 EQ PUSH3 0x123 JUMPI PUSH3 0x159 JUMP JUMPDEST PUSH1 0x1 SWAP2 POP POP PUSH3 0x1C2 JUMP JUMPDEST PUSH1 0xFF DUP5 GT ISZERO PUSH3 0x138 JUMPI PUSH3 0x137 PUSH3 0x1D3 JUMP JUMPDEST JUMPDEST DUP4 PUSH1 0x2 EXP SWAP2 POP DUP5 DUP3 GT ISZERO PUSH3 0x152 JUMPI PUSH3 0x151 PUSH3 0x1D3 JUMP JUMPDEST JUMPDEST POP PUSH3 0x1C2 JUMP JUMPDEST POP PUSH1 0x20 DUP4 LT PUSH2 0x133 DUP4 LT AND PUSH1 0x4E DUP5 LT PUSH1 0xB DUP5 LT AND OR ISZERO PUSH3 0x193 JUMPI DUP3 DUP3 EXP SWAP1 POP DUP4 DUP2 GT ISZERO PUSH3 0x18D JUMPI PUSH3 0x18C PUSH3 0x1D3 JUMP JUMPDEST JUMPDEST PUSH3 0x1C2 JUMP JUMPDEST PUSH3 0x1A2 DUP5 DUP5 DUP5 PUSH1 0x1 PUSH3 0x31 JUMP JUMPDEST SWAP3 POP SWAP1 POP DUP2 DUP5 DIV DUP2 GT ISZERO PUSH3 0x1BC JUMPI PUSH3 0x1BB PUSH3 0x1D3 JUMP JUMPDEST JUMPDEST DUP2 DUP2 MUL SWAP1 POP JUMPDEST SWAP4 SWAP3 POP POP POP JUMP JUMPDEST PUSH1 0x0 DUP2 SWAP1 POP SWAP2 SWAP1 POP JUMP JUMPDEST PUSH32 0x4E487B7100000000000000000000000000000000000000000000000000000000 PUSH1 0x0 MSTORE PUSH1 0x11 PUSH1 0x4 MSTORE PUSH1 0x24 PUSH1 0x0 REVERT JUMPDEST PUSH1 0x0 DUP2 PUSH1 0x1 SHR SWAP1 POP SWAP2 SWAP1 POP JUMP JUMPDEST PUSH2 0x7D4 DUP1 PUSH3 0x21F PUSH1 0x0 CODECOPY PUSH1 0x0 RETURN INVALID PUSH1 0x80 PUSH1 0x40 MSTORE CALLVALUE DUP1 ISZERO PUSH2 0x10 JUMPI PUSH1 0x0 DUP1 REVERT JUMPDEST POP PUSH1 0x4 CALLDATASIZE LT PUSH2 0x41 JUMPI PUSH1 0x0 CALLDATALOAD PUSH1 0xE0 SHR DUP1 PUSH4 0x37A417C EQ PUSH2 0x46 JUMPI DUP1 PUSH4 0x2052465E EQ PUSH2 0x64 JUMPI DUP1 PUSH4 0x7BFF0A01 EQ PUSH2 0x95 JUMPI JUMPDEST PUSH1 0x0 DUP1 REVERT JUMPDEST PUSH2 0x4E PUSH2 0xB1 JUMP JUMPDEST PUSH1 0x40 MLOAD PUSH2 0x5B SWAP2 SWAP1 PUSH2 0x490 JUMP JUMPDEST PUSH1 0x40 MLOAD DUP1 SWAP2 SUB SWAP1 RETURN JUMPDEST PUSH2 0x7E PUSH1 0x4 DUP1 CALLDATASIZE SUB DUP2 ADD SWAP1 PUSH2 0x79 SWAP2 SWAP1 PUSH2 0x41B JUMP JUMPDEST PUSH2 0xEE JUMP JUMPDEST PUSH1 0x40 MLOAD PUSH2 0x8C SWAP3 SWAP2 SWAP1 PUSH2 0x4B2 JUMP JUMPDEST PUSH1 0x40 MLOAD DUP1 SWAP2 SUB SWAP1 RETURN JUMPDEST PUSH2 0xAF PUSH1 0x4 DUP1 CALLDATASIZE SUB DUP2 ADD SWAP1 PUSH2 0xAA SWAP2 SWAP1 PUSH2 0x3D2 JUMP JUMPDEST PUSH2 0x1AA JUMP JUMPDEST STOP JUMPDEST PUSH1 0x60 PUSH1 0x40 MLOAD DUP1 PUSH1 0x40 ADD PUSH1 0x40 MSTORE DUP1 PUSH1 0xC DUP2 MSTORE PUSH1 0x20 ADD PUSH32 0x7465737420737563636573730000000000000000000000000000000000000000 DUP2 MSTORE POP SWAP1 POP SWAP1 JUMP JUMPDEST PUSH1 0x2 DUP2 DUP2 SLOAD DUP2 LT PUSH2 0xFE JUMPI PUSH1 0x0 DUP1 REVERT JUMPDEST SWAP1 PUSH1 0x0 MSTORE PUSH1 0x20 PUSH1 0x0 KECCAK256 SWAP1 PUSH1 0x2 MUL ADD PUSH1 0x0 SWAP2 POP SWAP1 POP DUP1 PUSH1 0x0 ADD DUP1 SLOAD PUSH2 0x121 SWAP1 PUSH2 0x612 JUMP JUMPDEST DUP1 PUSH1 0x1F ADD PUSH1 0x20 DUP1 SWAP2 DIV MUL PUSH1 0x20 ADD PUSH1 0x40 MLOAD SWAP1 DUP2 ADD PUSH1 0x40 MSTORE DUP1 SWAP3 SWAP2 SWAP1 DUP2 DUP2 MSTORE PUSH1 0x20 ADD DUP3 DUP1 SLOAD PUSH2 0x14D SWAP1 PUSH2 0x612 JUMP JUMPDEST DUP1 ISZERO PUSH2 0x19A JUMPI DUP1 PUSH1 0x1F LT PUSH2 0x16F JUMPI PUSH2 0x100 DUP1 DUP4 SLOAD DIV MUL DUP4 MSTORE SWAP2 PUSH1 0x20 ADD SWAP2 PUSH2 0x19A JUMP JUMPDEST DUP3 ADD SWAP2 SWAP1 PUSH1 0x0 MSTORE PUSH1 0x20 PUSH1 0x0 KECCAK256 SWAP1 JUMPDEST DUP2 SLOAD DUP2 MSTORE SWAP1 PUSH1 0x1 ADD SWAP1 PUSH1 0x20 ADD DUP1 DUP4 GT PUSH2 0x17D JUMPI DUP3 SWAP1 SUB PUSH1 0x1F AND DUP3 ADD SWAP2 JUMPDEST POP POP POP POP POP SWAP1 DUP1 PUSH1 0x1 ADD SLOAD SWAP1 POP DUP3 JUMP JUMPDEST PUSH1 0x0 PUSH2 0x1B5 DUP3 PUSH2 0x1C5 JUMP JUMPDEST SWAP1 POP PUSH2 0x1C1 DUP3 DUP3 PUSH2 0x1EB JUMP JUMPDEST POP POP JUMP JUMPDEST PUSH1 0x0 DUP1 DUP3 DUP1 MLOAD SWAP1 PUSH1 0x20 ADD KECCAK256 PUSH1 0x0 SHR SWAP1 POP PUSH1 0x1 SLOAD DUP2 PUSH2 0x1E3 SWAP2 SWAP1 PUSH2 0x675 JUMP JUMPDEST SWAP2 POP POP SWAP2 SWAP1 POP JUMP JUMPDEST PUSH1 0x2 PUSH1 0x40 MLOAD DUP1 PUSH1 0x40 ADD PUSH1 0x40 MSTORE DUP1 DUP5 DUP2 MSTORE PUSH1 0x20 ADD DUP4 DUP2 MSTORE POP SWAP1 DUP1 PUSH1 0x1 DUP2 SLOAD ADD DUP1 DUP3 SSTORE DUP1 SWAP2 POP POP PUSH1 0x1 SWAP1 SUB SWAP1 PUSH1 0x0 MSTORE PUSH1 0x20 PUSH1 0x0 KECCAK256 SWAP1 PUSH1 0x2 MUL ADD PUSH1 0x0 SWAP1 SWAP2 SWAP1 SWAP2 SWAP1 SWAP2 POP PUSH1 0x0 DUP3 ADD MLOAD DUP2 PUSH1 0x0 ADD SWAP1 DUP1 MLOAD SWAP1 PUSH1 0x20 ADD SWAP1 PUSH2 0x247 SWAP3 SWAP2 SWAP1 PUSH2 0x2AA JUMP JUMPDEST POP PUSH1 0x20 DUP3 ADD MLOAD DUP2 PUSH1 0x1 ADD SSTORE POP POP PUSH1 0x0 PUSH1 0x1 PUSH1 0x2 DUP1 SLOAD SWAP1 POP PUSH2 0x268 SWAP2 SWAP1 PUSH2 0x592 JUMP JUMPDEST SWAP1 POP PUSH32 0x88F026AACBBECC90C18411DF4B1185FD8D9BE2470F1962F192BF84A27D0704B7 DUP2 DUP5 DUP5 PUSH1 0x40 MLOAD PUSH2 0x29D SWAP4 SWAP3 SWAP2 SWAP1 PUSH2 0x4E2 JUMP JUMPDEST PUSH1 0x40 MLOAD DUP1 SWAP2 SUB SWAP1 LOG1 POP POP POP JUMP JUMPDEST DUP3 DUP1 SLOAD PUSH2 0x2B6 SWAP1 PUSH2 0x612 JUMP JUMPDEST SWAP1 PUSH1 0x0 MSTORE PUSH1 0x20 PUSH1 0x0 KECCAK256 SWAP1 PUSH1 0x1F ADD PUSH1 0x20 SWAP1 DIV DUP2 ADD SWAP3 DUP3 PUSH2 0x2D8 JUMPI PUSH1 0x0 DUP6 SSTORE PUSH2 0x31F JUMP JUMPDEST DUP3 PUSH1 0x1F LT PUSH2 0x2F1 JUMPI DUP1 MLOAD PUSH1 0xFF NOT AND DUP4 DUP1 ADD OR DUP6 SSTORE PUSH2 0x31F JUMP JUMPDEST DUP3 DUP1 ADD PUSH1 0x1 ADD DUP6 SSTORE DUP3 ISZERO PUSH2 0x31F JUMPI SWAP2 DUP3 ADD JUMPDEST DUP3 DUP2 GT ISZERO PUSH2 0x31E JUMPI DUP3 MLOAD DUP3 SSTORE SWAP2 PUSH1 0x20 ADD SWAP2 SWAP1 PUSH1 0x1 ADD SWAP1 PUSH2 0x303 JUMP JUMPDEST JUMPDEST POP SWAP1 POP PUSH2 0x32C SWAP2 SWAP1 PUSH2 0x330 JUMP JUMPDEST POP SWAP1 JUMP JUMPDEST JUMPDEST DUP1 DUP3 GT ISZERO PUSH2 0x349 JUMPI PUSH1 0x0 DUP2 PUSH1 0x0 SWAP1 SSTORE POP PUSH1 0x1 ADD PUSH2 0x331 JUMP JUMPDEST POP SWAP1 JUMP JUMPDEST PUSH1 0x0 PUSH2 0x360 PUSH2 0x35B DUP5 PUSH2 0x545 JUMP JUMPDEST PUSH2 0x520 JUMP JUMPDEST SWAP1 POP DUP3 DUP2 MSTORE PUSH1 0x20 DUP2 ADD DUP5 DUP5 DUP5 ADD GT ISZERO PUSH2 0x37C JUMPI PUSH2 0x37B PUSH2 0x767 JUMP JUMPDEST JUMPDEST PUSH2 0x387 DUP5 DUP3 DUP6 PUSH2 0x5D0 JUMP JUMPDEST POP SWAP4 SWAP3 POP POP POP JUMP JUMPDEST PUSH1 0x0 DUP3 PUSH1 0x1F DUP4 ADD SLT PUSH2 0x3A4 JUMPI PUSH2 0x3A3 PUSH2 0x762 JUMP JUMPDEST JUMPDEST DUP2 CALLDATALOAD PUSH2 0x3B4 DUP5 DUP3 PUSH1 0x20 DUP7 ADD PUSH2 0x34D JUMP JUMPDEST SWAP2 POP POP SWAP3 SWAP2 POP POP JUMP JUMPDEST PUSH1 0x0 DUP2 CALLDATALOAD SWAP1 POP PUSH2 0x3CC DUP2 PUSH2 0x787 JUMP JUMPDEST SWAP3 SWAP2 POP POP JUMP JUMPDEST PUSH1 0x0 PUSH1 0x20 DUP3 DUP5 SUB SLT ISZERO PUSH2 0x3E8 JUMPI PUSH2 0x3E7 PUSH2 0x771 JUMP JUMPDEST JUMPDEST PUSH1 0x0 DUP3 ADD CALLDATALOAD PUSH8 0xFFFFFFFFFFFFFFFF DUP2 GT ISZERO PUSH2 0x406 JUMPI PUSH2 0x405 PUSH2 0x76C JUMP JUMPDEST JUMPDEST PUSH2 0x412 DUP5 DUP3 DUP6 ADD PUSH2 0x38F JUMP JUMPDEST SWAP2 POP POP SWAP3 SWAP2 POP POP JUMP JUMPDEST PUSH1 0x0 PUSH1 0x20 DUP3 DUP5 SUB SLT ISZERO PUSH2 0x431 JUMPI PUSH2 0x430 PUSH2 0x771 JUMP JUMPDEST JUMPDEST PUSH1 0x0 PUSH2 0x43F DUP5 DUP3 DUP6 ADD PUSH2 0x3BD JUMP JUMPDEST SWAP2 POP POP SWAP3 SWAP2 POP POP JUMP JUMPDEST PUSH1 0x0 PUSH2 0x453 DUP3 PUSH2 0x576 JUMP JUMPDEST PUSH2 0x45D DUP2 DUP6 PUSH2 0x581 JUMP JUMPDEST SWAP4 POP PUSH2 0x46D DUP2 DUP6 PUSH1 0x20 DUP7 ADD PUSH2 0x5DF JUMP JUMPDEST PUSH2 0x476 DUP2 PUSH2 0x776 JUMP JUMPDEST DUP5 ADD SWAP2 POP POP SWAP3 SWAP2 POP POP JUMP JUMPDEST PUSH2 0x48A DUP2 PUSH2 0x5C6 JUMP JUMPDEST DUP3 MSTORE POP POP JUMP JUMPDEST PUSH1 0x0 PUSH1 0x20 DUP3 ADD SWAP1 POP DUP2 DUP2 SUB PUSH1 0x0 DUP4 ADD MSTORE PUSH2 0x4AA DUP2 DUP5 PUSH2 0x448 JUMP JUMPDEST SWAP1 POP SWAP3 SWAP2 POP POP JUMP JUMPDEST PUSH1 0x0 PUSH1 0x40 DUP3 ADD SWAP1 POP DUP2 DUP2 SUB PUSH1 0x0 DUP4 ADD MSTORE PUSH2 0x4CC DUP2 DUP6 PUSH2 0x448 JUMP JUMPDEST SWAP1 POP PUSH2 0x4DB PUSH1 0x20 DUP4 ADD DUP5 PUSH2 0x481 JUMP JUMPDEST SWAP4 SWAP3 POP POP POP JUMP JUMPDEST PUSH1 0x0 PUSH1 0x60 DUP3 ADD SWAP1 POP PUSH2 0x4F7 PUSH1 0x0 DUP4 ADD DUP7 PUSH2 0x481 JUMP JUMPDEST DUP2 DUP2 SUB PUSH1 0x20 DUP4 ADD MSTORE PUSH2 0x509 DUP2 DUP6 PUSH2 0x448 JUMP JUMPDEST SWAP1 POP PUSH2 0x518 PUSH1 0x40 DUP4 ADD DUP5 PUSH2 0x481 JUMP JUMPDEST SWAP5 SWAP4 POP POP POP POP JUMP JUMPDEST PUSH1 0x0 PUSH2 0x52A PUSH2 0x53B JUMP JUMPDEST SWAP1 POP PUSH2 0x536 DUP3 DUP3 PUSH2 0x644 JUMP JUMPDEST SWAP2 SWAP1 POP JUMP JUMPDEST PUSH1 0x0 PUSH1 0x40 MLOAD SWAP1 POP SWAP1 JUMP JUMPDEST PUSH1 0x0 PUSH8 0xFFFFFFFFFFFFFFFF DUP3 GT ISZERO PUSH2 0x560 JUMPI PUSH2 0x55F PUSH2 0x733 JUMP JUMPDEST JUMPDEST PUSH2 0x569 DUP3 PUSH2 0x776 JUMP JUMPDEST SWAP1 POP PUSH1 0x20 DUP2 ADD SWAP1 POP SWAP2 SWAP1 POP JUMP JUMPDEST PUSH1 0x0 DUP2 MLOAD SWAP1 POP SWAP2 SWAP1 POP JUMP JUMPDEST PUSH1 0x0 DUP3 DUP3 MSTORE PUSH1 0x20 DUP3 ADD SWAP1 POP SWAP3 SWAP2 POP POP JUMP JUMPDEST PUSH1 0x0 PUSH2 0x59D DUP3 PUSH2 0x5C6 JUMP JUMPDEST SWAP2 POP PUSH2 0x5A8 DUP4 PUSH2 0x5C6 JUMP JUMPDEST SWAP3 POP DUP3 DUP3 LT ISZERO PUSH2 0x5BB JUMPI PUSH2 0x5BA PUSH2 0x6A6 JUMP JUMPDEST JUMPDEST DUP3 DUP3 SUB SWAP1 POP SWAP3 SWAP2 POP POP JUMP JUMPDEST PUSH1 0x0 DUP2 SWAP1 POP SWAP2 SWAP1 POP JUMP JUMPDEST DUP3 DUP2 DUP4 CALLDATACOPY PUSH1 0x0 DUP4 DUP4 ADD MSTORE POP POP POP JUMP JUMPDEST PUSH1 0x0 JUMPDEST DUP4 DUP2 LT ISZERO PUSH2 0x5FD JUMPI DUP1 DUP3 ADD MLOAD DUP2 DUP5 ADD MSTORE PUSH1 0x20 DUP2 ADD SWAP1 POP PUSH2 0x5E2 JUMP JUMPDEST DUP4 DUP2 GT ISZERO PUSH2 0x60C JUMPI PUSH1 0x0 DUP5 DUP5 ADD MSTORE JUMPDEST POP POP POP POP JUMP JUMPDEST PUSH1 0x0 PUSH1 0x2 DUP3 DIV SWAP1 POP PUSH1 0x1 DUP3 AND DUP1 PUSH2 0x62A JUMPI PUSH1 0x7F DUP3 AND SWAP2 POP JUMPDEST PUSH1 0x20 DUP3 LT DUP2 EQ ISZERO PUSH2 0x63E JUMPI PUSH2 0x63D PUSH2 0x704 JUMP JUMPDEST JUMPDEST POP SWAP2 SWAP1 POP JUMP JUMPDEST PUSH2 0x64D DUP3 PUSH2 0x776 JUMP JUMPDEST DUP2 ADD DUP2 DUP2 LT PUSH8 0xFFFFFFFFFFFFFFFF DUP3 GT OR ISZERO PUSH2 0x66C JUMPI PUSH2 0x66B PUSH2 0x733 JUMP JUMPDEST JUMPDEST DUP1 PUSH1 0x40 MSTORE POP POP POP JUMP JUMPDEST PUSH1 0x0 PUSH2 0x680 DUP3 PUSH2 0x5C6 JUMP JUMPDEST SWAP2 POP PUSH2 0x68B DUP4 PUSH2 0x5C6 JUMP JUMPDEST SWAP3 POP DUP3 PUSH2 0x69B JUMPI PUSH2 0x69A PUSH2 0x6D5 JUMP JUMPDEST JUMPDEST DUP3 DUP3 MOD SWAP1 POP SWAP3 SWAP2 POP POP JUMP JUMPDEST PUSH32 0x4E487B7100000000000000000000000000000000000000000000000000000000 PUSH1 0x0 MSTORE PUSH1 0x11 PUSH1 0x4 MSTORE PUSH1 0x24 PUSH1 0x0 REVERT JUMPDEST PUSH32 0x4E487B7100000000000000000000000000000000000000000000000000000000 PUSH1 0x0 MSTORE PUSH1 0x12 PUSH1 0x4 MSTORE PUSH1 0x24 PUSH1 0x0 REVERT JUMPDEST PUSH32 0x4E487B7100000000000000000000000000000000000000000000000000000000 PUSH1 0x0 MSTORE PUSH1 0x22 PUSH1 0x4 MSTORE PUSH1 0x24 PUSH1 0x0 REVERT JUMPDEST PUSH32 0x4E487B7100000000000000000000000000000000000000000000000000000000 PUSH1 0x0 MSTORE PUSH1 0x41 PUSH1 0x4 MSTORE PUSH1 0x24 PUSH1 0x0 REVERT JUMPDEST PUSH1 0x0 DUP1 REVERT JUMPDEST PUSH1 0x0 DUP1 REVERT JUMPDEST PUSH1 0x0 DUP1 REVERT JUMPDEST PUSH1 0x0 DUP1 REVERT JUMPDEST PUSH1 0x0 PUSH1 0x1F NOT PUSH1 0x1F DUP4 ADD AND SWAP1 POP SWAP2 SWAP1 POP JUMP JUMPDEST PUSH2 0x790 DUP2 PUSH2 0x5C6 JUMP JUMPDEST DUP2 EQ PUSH2 0x79B JUMPI PUSH1 0x0 DUP1 REVERT JUMPDEST POP JUMP INVALID LOG2 PUSH5 0x6970667358 0x22 SLT KECCAK256 0x2A 0xE2 0x2A 0x49 PUSH29 0x112B50BB0A9B82B65C066600AD77D8785FE19EFF9B3716B5FAC3C96473 PUSH16 0x6C634300080600330000000000000000 "
		},
		"gasEstimates": {
			"creation": {
				"codeDepositCost": "400800",
				"executionCost": "infinite",
				"totalCost": "infinite"
			},
			"external": {
				"createRandomZombie(string)": "infinite",
				"testFunc()": "infinite",
				"zombies(uint256)": "infinite"
			},
			"internal": {
				"_createZombie(string memory,uint256)": "infinite",
				"_generateRandomDna(string memory)": "infinite"
			}
		},
		"methodIdentifiers": {
			"createRandomZombie(string)": "7bff0a01",
			"testFunc()": "037a417c",
			"zombies(uint256)": "2052465e"
		}
	},
	"abi": [
		{
			"anonymous": false,
			"inputs": [
				{
					"indexed": false,
					"internalType": "uint256",
					"name": "zombieId",
					"type": "uint256"
				},
				{
					"indexed": false,
					"internalType": "string",
					"name": "name",
					"type": "string"
				},
				{
					"indexed": false,
					"internalType": "uint256",
					"name": "dna",
					"type": "uint256"
				}
			],
			"name": "NewZombie",
			"type": "event"
		},
		{
			"inputs": [
				{
					"internalType": "string",
					"name": "_name",
					"type": "string"
				}
			],
			"name": "createRandomZombie",
			"outputs": [],
			"stateMutability": "nonpayable",
			"type": "function"
		},
		{
			"inputs": [],
			"name": "testFunc",
			"outputs": [
				{
					"internalType": "string",
					"name": "",
					"type": "string"
				}
			],
			"stateMutability": "pure",
			"type": "function"
		},
		{
			"inputs": [
				{
					"internalType": "uint256",
					"name": "",
					"type": "uint256"
				}
			],
			"name": "zombies",
			"outputs": [
				{
					"internalType": "string",
					"name": "name",
					"type": "string"
				},
				{
					"internalType": "uint256",
					"name": "dna",
					"type": "uint256"
				}
			],
			"stateMutability": "view",
			"type": "function"
		}
	]
}